{
  "contractName": "RWD",
  "abi": [
    {
      "inputs": [],
      "payable": false,
      "stateMutability": "nonpayable",
      "type": "constructor"
    },
    {
      "anonymous": false,
      "inputs": [
        {
          "indexed": true,
          "internalType": "address",
          "name": "_owner",
          "type": "address"
        },
        {
          "indexed": true,
          "internalType": "address",
          "name": "_spender",
          "type": "address"
        },
        {
          "indexed": false,
          "internalType": "uint256",
          "name": "_value",
          "type": "uint256"
        }
      ],
      "name": "Approval",
      "type": "event"
    },
    {
      "anonymous": false,
      "inputs": [
        {
          "indexed": true,
          "internalType": "address",
          "name": "_from",
          "type": "address"
        },
        {
          "indexed": true,
          "internalType": "address",
          "name": "_to",
          "type": "address"
        },
        {
          "indexed": false,
          "internalType": "uint256",
          "name": "_value",
          "type": "uint256"
        }
      ],
      "name": "Transfer",
      "type": "event"
    },
    {
      "constant": true,
      "inputs": [
        {
          "internalType": "address",
          "name": "",
          "type": "address"
        },
        {
          "internalType": "address",
          "name": "",
          "type": "address"
        }
      ],
      "name": "allowance",
      "outputs": [
        {
          "internalType": "uint256",
          "name": "",
          "type": "uint256"
        }
      ],
      "payable": false,
      "stateMutability": "view",
      "type": "function"
    },
    {
      "constant": true,
      "inputs": [
        {
          "internalType": "address",
          "name": "",
          "type": "address"
        }
      ],
      "name": "balanceOf",
      "outputs": [
        {
          "internalType": "uint256",
          "name": "",
          "type": "uint256"
        }
      ],
      "payable": false,
      "stateMutability": "view",
      "type": "function"
    },
    {
      "constant": true,
      "inputs": [],
      "name": "name",
      "outputs": [
        {
          "internalType": "string",
          "name": "",
          "type": "string"
        }
      ],
      "payable": false,
      "stateMutability": "view",
      "type": "function"
    },
    {
      "constant": true,
      "inputs": [],
      "name": "totalSupply",
      "outputs": [
        {
          "internalType": "uint256",
          "name": "",
          "type": "uint256"
        }
      ],
      "payable": false,
      "stateMutability": "view",
      "type": "function"
    },
    {
      "constant": false,
      "inputs": [
        {
          "internalType": "address",
          "name": "_to",
          "type": "address"
        },
        {
          "internalType": "uint256",
          "name": "_value",
          "type": "uint256"
        }
      ],
      "name": "transfer",
      "outputs": [
        {
          "internalType": "bool",
          "name": "success",
          "type": "bool"
        }
      ],
      "payable": false,
      "stateMutability": "nonpayable",
      "type": "function"
    },
    {
      "constant": false,
      "inputs": [
        {
          "internalType": "address",
          "name": "_spender",
          "type": "address"
        },
        {
          "internalType": "uint256",
          "name": "_value",
          "type": "uint256"
        }
      ],
      "name": "approve",
      "outputs": [
        {
          "internalType": "bool",
          "name": "success",
          "type": "bool"
        }
      ],
      "payable": false,
      "stateMutability": "nonpayable",
      "type": "function"
    },
    {
      "constant": false,
      "inputs": [
        {
          "internalType": "address",
          "name": "_from",
          "type": "address"
        },
        {
          "internalType": "address",
          "name": "_to",
          "type": "address"
        },
        {
          "internalType": "uint256",
          "name": "_value",
          "type": "uint256"
        }
      ],
      "name": "transferFrom",
      "outputs": [
        {
          "internalType": "bool",
          "name": "success",
          "type": "bool"
        }
      ],
      "payable": false,
      "stateMutability": "nonpayable",
      "type": "function"
    }
  ],
  "bytecode": "0x60806040526040518060400160405280600c81526020017f52657761726420546f6b656e00000000000000000000000000000000000000008152506000908051906020019061004f929190610107565b506040518060400160405280600381526020017f52574400000000000000000000000000000000000000000000000000000000008152506001908051906020019061009b929190610107565b5069d3c21bcecceda100000060025560126003553480156100bb57600080fd5b50600254600460003373ffffffffffffffffffffffffffffffffffffffff1673ffffffffffffffffffffffffffffffffffffffff168152602001908152602001600020819055506101ac565b828054600181600116156101000203166002900490600052602060002090601f016020900481019282601f1061014857805160ff1916838001178555610176565b82800160010185558215610176579182015b8281111561017557825182559160200191906001019061015a565b5b5090506101839190610187565b5090565b6101a991905b808211156101a557600081600090555060010161018d565b5090565b90565b61090f806101bb6000396000f3fe608060405234801561001057600080fd5b506004361061007d5760003560e01c806323b872dd1161005b57806323b872dd1461018957806370a082311461020f578063a9059cbb14610267578063dd62ed3e146102cd5761007d565b806306fdde0314610082578063095ea7b31461010557806318160ddd1461016b575b600080fd5b61008a610345565b6040518080602001828103825283818151815260200191508051906020019080838360005b838110156100ca5780820151818401526020810190506100af565b50505050905090810190601f1680156100f75780820380516001836020036101000a031916815260200191505b509250505060405180910390f35b6101516004803603604081101561011b57600080fd5b81019080803573ffffffffffffffffffffffffffffffffffffffff169060200190929190803590602001909291905050506103e3565b604051808215151515815260200191505060405180910390f35b6101736104d5565b6040518082815260200191505060405180910390f35b6101f56004803603606081101561019f57600080fd5b81019080803573ffffffffffffffffffffffffffffffffffffffff169060200190929190803573ffffffffffffffffffffffffffffffffffffffff169060200190929190803590602001909291905050506104db565b604051808215151515815260200191505060405180910390f35b6102516004803603602081101561022557600080fd5b81019080803573ffffffffffffffffffffffffffffffffffffffff169060200190929190505050610746565b6040518082815260200191505060405180910390f35b6102b36004803603604081101561027d57600080fd5b81019080803573ffffffffffffffffffffffffffffffffffffffff1690602001909291908035906020019092919050505061075e565b604051808215151515815260200191505060405180910390f35b61032f600480360360408110156102e357600080fd5b81019080803573ffffffffffffffffffffffffffffffffffffffff169060200190929190803573ffffffffffffffffffffffffffffffffffffffff1690602001909291905050506108b5565b6040518082815260200191505060405180910390f35b60008054600181600116156101000203166002900480601f0160208091040260200160405190810160405280929190818152602001828054600181600116156101000203166002900480156103db5780601f106103b0576101008083540402835291602001916103db565b820191906000526020600020905b8154815290600101906020018083116103be57829003601f168201915b505050505081565b600081600560003373ffffffffffffffffffffffffffffffffffffffff1673ffffffffffffffffffffffffffffffffffffffff16815260200190815260200160002060008573ffffffffffffffffffffffffffffffffffffffff1673ffffffffffffffffffffffffffffffffffffffff168152602001908152602001600020819055508273ffffffffffffffffffffffffffffffffffffffff163373ffffffffffffffffffffffffffffffffffffffff167f8c5be1e5ebec7d5bd14f71427d1e84f3dd0314c0f7b2291e5b200ac8c7c3b925846040518082815260200191505060405180910390a36001905092915050565b60025481565b6000600460008573ffffffffffffffffffffffffffffffffffffffff1673ffffffffffffffffffffffffffffffffffffffff1681526020019081526020016000205482111561052957600080fd5b600560008573ffffffffffffffffffffffffffffffffffffffff1673ffffffffffffffffffffffffffffffffffffffff16815260200190815260200160002060003373ffffffffffffffffffffffffffffffffffffffff1673ffffffffffffffffffffffffffffffffffffffff168152602001908152602001600020548211156105b257600080fd5b81600460008573ffffffffffffffffffffffffffffffffffffffff1673ffffffffffffffffffffffffffffffffffffffff1681526020019081526020016000206000828254019250508190555081600460008673ffffffffffffffffffffffffffffffffffffffff1673ffffffffffffffffffffffffffffffffffffffff1681526020019081526020016000206000828254039250508190555081600560008673ffffffffffffffffffffffffffffffffffffffff1673ffffffffffffffffffffffffffffffffffffffff16815260200190815260200160002060003373ffffffffffffffffffffffffffffffffffffffff1673ffffffffffffffffffffffffffffffffffffffff168152602001908152602001600020600082825403925050819055508273ffffffffffffffffffffffffffffffffffffffff168473ffffffffffffffffffffffffffffffffffffffff167fddf252ad1be2c89b69c2b068fc378daa952ba7f163c4a11628f55a4df523b3ef846040518082815260200191505060405180910390a3600190509392505050565b60046020528060005260406000206000915090505481565b600081600460003373ffffffffffffffffffffffffffffffffffffffff1673ffffffffffffffffffffffffffffffffffffffff1681526020019081526020016000205410156107ac57600080fd5b81600460003373ffffffffffffffffffffffffffffffffffffffff1673ffffffffffffffffffffffffffffffffffffffff1681526020019081526020016000206000828254039250508190555081600460008573ffffffffffffffffffffffffffffffffffffffff1673ffffffffffffffffffffffffffffffffffffffff168152602001908152602001600020600082825401925050819055508273ffffffffffffffffffffffffffffffffffffffff163373ffffffffffffffffffffffffffffffffffffffff167fddf252ad1be2c89b69c2b068fc378daa952ba7f163c4a11628f55a4df523b3ef846040518082815260200191505060405180910390a36001905092915050565b600560205281600052604060002060205280600052604060002060009150915050548156fea265627a7a72315820a90a63c41a9439f1e3f4610de48765c4214692da92f22431bf3147ec8e44deec64736f6c63430005110032",
  "source": "pragma solidity ^0.5.0;\n\ncontract RWD {\n    string public name = 'Reward Token';\n    string symbol = 'RWD';\n    uint256 public totalSupply = 1000000000000000000000000; // 1 million tokens;\n    uint decimals = 18;\n\n    event Transfer(\n        address indexed _from,\n        address indexed _to,\n        uint256 _value\n    );\n\n    event Approval (\n        address indexed _owner,\n        address indexed _spender,\n        uint256 _value\n    \n    );\n\n    mapping(address => uint256) public balanceOf;\n    mapping(address => mapping(address => uint256))  public allowance;\n\n    constructor() public {\n        balanceOf[msg.sender] = totalSupply;\n    }\n\n    function transfer(address _to, uint256 _value ) public returns (bool success) {\n        // require that the value is greater or equal for transfer\n        require(balanceOf[msg.sender] >= _value);\n        // transfer the amount and sub the balance from owner\n        balanceOf[msg.sender] -= _value;\n        // add the balance\n        balanceOf[_to] += _value;\n        emit Transfer(msg.sender, _to, _value);\n        return true;\n    }\n\n    function approve(address _spender, uint256 _value) public returns (bool success) {\n        allowance[msg.sender][_spender] = _value;\n        emit Approval(msg.sender, _spender, _value);\n        return true;\n    }\n    \n    function transferFrom(address _from, address _to, uint256 _value) public returns (bool success) {\n        require(_value <= balanceOf[_from]);\n        require(_value <= allowance[_from][msg.sender]);\n        balanceOf[_to] += _value;\n\n        balanceOf[_from] -= _value;\n        allowance[_from][msg.sender] -= _value;\n        emit Transfer(_from, _to, _value);\n        return true;\n    }\n}",
  "sourcePath": "/Users/mac/Documents/Project/John/BlockChain/Udemy/Ethereum/defi-staking-app-starter/defi-staking-app-starter/src/contracts/RWD.sol",
  "compiler": {
    "name": "solc",
    "version": "0.5.17+commit.d19bba13.Emscripten.clang"
  },
  "schemaVersion": "3.4.3",
  "updatedAt": "2021-12-18T15:35:50.174Z",
  "networkType": "ethereum",
  "devdoc": {
    "methods": {}
  },
  "userdoc": {
    "methods": {}
  }
}