{
  "contractName": "Tether",
  "abi": [
    {
      "constant": true,
      "inputs": [],
      "name": "name",
      "outputs": [
        {
          "internalType": "string",
          "name": "",
          "type": "string"
        }
      ],
      "payable": false,
      "stateMutability": "view",
      "type": "function"
    },
    {
      "constant": true,
      "inputs": [],
      "name": "totalSuppy",
      "outputs": [
        {
          "internalType": "uint256",
          "name": "",
          "type": "uint256"
        }
      ],
      "payable": false,
      "stateMutability": "view",
      "type": "function"
    }
  ],
  "bytecode": "0x60806040526040518060400160405280600681526020017f54657468657200000000000000000000000000000000000000000000000000008152506000908051906020019061004f9291906100bf565b506040518060400160405280600481526020017f55534454000000000000000000000000000000000000000000000000000000008152506001908051906020019061009b9291906100bf565b50670de0b6b3a764000060025560126003553480156100b957600080fd5b50610164565b828054600181600116156101000203166002900490600052602060002090601f016020900481019282601f1061010057805160ff191683800117855561012e565b8280016001018555821561012e579182015b8281111561012d578251825591602001919060010190610112565b5b50905061013b919061013f565b5090565b61016191905b8082111561015d576000816000905550600101610145565b5090565b90565b6101b5806101736000396000f3fe608060405234801561001057600080fd5b50600436106100365760003560e01c806306fdde031461003b578063d524ccbb146100be575b600080fd5b6100436100dc565b6040518080602001828103825283818151815260200191508051906020019080838360005b83811015610083578082015181840152602081019050610068565b50505050905090810190601f1680156100b05780820380516001836020036101000a031916815260200191505b509250505060405180910390f35b6100c661017a565b6040518082815260200191505060405180910390f35b60008054600181600116156101000203166002900480601f0160208091040260200160405190810160405280929190818152602001828054600181600116156101000203166002900480156101725780601f1061014757610100808354040283529160200191610172565b820191906000526020600020905b81548152906001019060200180831161015557829003601f168201915b505050505081565b6002548156fea265627a7a72315820f3d8dea17f09c51843ab9a6dbc3e5fd25ab7c93cd4d08a4f0d3283da1154c57864736f6c63430005110032",
  "source": "pragma solidity ^0.5.0;\n\ncontract Tether {\n    string public name = 'Tether';\n    string symbol = 'USDT';\n    uint256 public totalSuppy = 1000000000000000000; // 1 million tokens;\n    uint decimals = 18;\n}",
  "sourcePath": "/Users/mac/Documents/Project/John/BlockChain/Udemy/Ethereum/defi-staking-app-starter/defi-staking-app-starter/src/contracts/Tether.sol",
  "compiler": {
    "name": "solc",
    "version": "0.5.17+commit.d19bba13.Emscripten.clang"
  },
  "schemaVersion": "3.4.3",
  "updatedAt": "2021-12-03T14:48:09.569Z",
  "networkType": "ethereum",
  "devdoc": {
    "methods": {}
  },
  "userdoc": {
    "methods": {}
  }
}